:020000020000FC
:0200000009C035
:10001400002401E0102E0FEF0DBF08E00EBF2B9A55
:100024002C9A249A1DD000E002BD00E001BD00918D
:10003400660000BD04E00FBB06E00FBB0000F999A9
:10004400FECF18E000E123B123FFFDCF35B1302707
:1000540023B123FDFDCF35B91A95A9F70000FFCFD1
:10006400662781E0000050E4650F6093660000009D
:10007400000034D0403081F15695552331F0052FDE
:10008400413009F40195600FF0CF413011F051E097
:1000940001C05FEF650F60936600000000001ED092
:1000A4004030D1F0650F609366000000000016D068
:1000B400403091F05195550F550F650F60936600D0
:1000C400000000000BD0403039F0882319F08A95E5
:1000D40060E8C9CF249AC3CF462F0895332401E0A2
:1000E400402E06E206BC11E01B9BFECF1B99FECFFF
:1000F40015BD25B320FF02C0310C45BA1B9BFECFB2
:1001040025B320FF02C0310C45BA1B99FECF25B39D
:1001140020FF02C0310C45BA1B9BFECF25B320FF44
:1001240002C0310C45BA1B99FECF0A9581F725B35D
:1001340020FF02C0310C45BA1B9BFECF25B320FF24
:1001440002C0310C45BA1B99FECF05BC25B320FF74
:1001540004C00894301C217025BB26B410EC26E2A0
:10016400211632063CF410E026E21215230524F48D
:0C01740040E0089541E008954FEF089529
:00000001FF
