:020000020000FC
:0200000009C035
:10001400002401E0102E0FEF0DBF02E00EBFDE9AA8
:10002400DD9AD59A1DD000E00FBB00E00EBB009115
:1000340074000DBB04E00CBB06E00CBB0000E199AE
:10004400FECF18E000E229B326FFFDCF3BB33027F3
:1000540029B326FDFDCF3BBB1A95A9F70000FFCFBE
:10006400662781E0000050E4650F6093740000008F
:10007400000034D0403081F15695552331F0052FDE
:10008400413009F40195600FF0CF413011F051E097
:1000940001C05FEF650F60937400000000001ED084
:1000A4004030D1F0650F609374000000000016D05A
:1000B400403091F05195550F550F650F60937400C2
:1000C400000000000BD0403039F0882319F08A95E5
:1000D40060E8C9CFD59AC3CF462F0895332401E0F1
:1000E400402E06E202BE11E0CE9BFECFCE99FECF9B
:1000F40013BF28B720FF02C0310C48BECE9BFECFF1
:1001040028B720FF02C0310C48BECE99FECF28B7D5
:1001140020FF02C0310C48BECE9BFECF28B720FF83
:1001240002C0310C48BECE99FECF0A9581F728B79C
:1001340020FF02C0310C48BECE9BFECF28B720FF63
:1001440002C0310C48BECE99FECF03BE28B720FFB3
:1001540004C00894301C217028BF22B610EC26E29B
:10016400211632063CF410E026E21215230524F48D
:0C01740040E0089541E008954FEF089529
:00000001FF
